{
  "contractName": "LendingPlatform",
  "abi": [
    {
      "inputs": [],
      "stateMutability": "nonpayable",
      "type": "constructor"
    },
    {
      "anonymous": false,
      "inputs": [
        {
          "indexed": true,
          "internalType": "address",
          "name": "user",
          "type": "address"
        },
        {
          "indexed": false,
          "internalType": "uint256",
          "name": "amount",
          "type": "uint256"
        }
      ],
      "name": "Borrowed",
      "type": "event"
    },
    {
      "anonymous": false,
      "inputs": [
        {
          "indexed": true,
          "internalType": "address",
          "name": "user",
          "type": "address"
        },
        {
          "indexed": false,
          "internalType": "uint256",
          "name": "amount",
          "type": "uint256"
        }
      ],
      "name": "Deposited",
      "type": "event"
    },
    {
      "anonymous": false,
      "inputs": [
        {
          "indexed": true,
          "internalType": "address",
          "name": "user",
          "type": "address"
        },
        {
          "indexed": false,
          "internalType": "uint256",
          "name": "amount",
          "type": "uint256"
        }
      ],
      "name": "Repaid",
      "type": "event"
    },
    {
      "anonymous": false,
      "inputs": [
        {
          "indexed": true,
          "internalType": "address",
          "name": "user",
          "type": "address"
        },
        {
          "indexed": false,
          "internalType": "uint256",
          "name": "amount",
          "type": "uint256"
        }
      ],
      "name": "Withdrew",
      "type": "event"
    },
    {
      "inputs": [],
      "name": "borrowerInterestRate",
      "outputs": [
        {
          "internalType": "uint256",
          "name": "",
          "type": "uint256"
        }
      ],
      "stateMutability": "view",
      "type": "function"
    },
    {
      "inputs": [
        {
          "internalType": "address",
          "name": "",
          "type": "address"
        }
      ],
      "name": "borrows",
      "outputs": [
        {
          "internalType": "uint256",
          "name": "",
          "type": "uint256"
        }
      ],
      "stateMutability": "view",
      "type": "function"
    },
    {
      "inputs": [
        {
          "internalType": "address",
          "name": "",
          "type": "address"
        }
      ],
      "name": "collaterals",
      "outputs": [
        {
          "internalType": "uint256",
          "name": "",
          "type": "uint256"
        }
      ],
      "stateMutability": "view",
      "type": "function"
    },
    {
      "inputs": [
        {
          "internalType": "address",
          "name": "",
          "type": "address"
        }
      ],
      "name": "deposits",
      "outputs": [
        {
          "internalType": "uint256",
          "name": "",
          "type": "uint256"
        }
      ],
      "stateMutability": "view",
      "type": "function"
    },
    {
      "inputs": [],
      "name": "lastInterestUpdate",
      "outputs": [
        {
          "internalType": "uint256",
          "name": "",
          "type": "uint256"
        }
      ],
      "stateMutability": "view",
      "type": "function"
    },
    {
      "inputs": [],
      "name": "lenderInterestRate",
      "outputs": [
        {
          "internalType": "uint256",
          "name": "",
          "type": "uint256"
        }
      ],
      "stateMutability": "view",
      "type": "function"
    },
    {
      "inputs": [],
      "name": "totalBorrows",
      "outputs": [
        {
          "internalType": "uint256",
          "name": "",
          "type": "uint256"
        }
      ],
      "stateMutability": "view",
      "type": "function"
    },
    {
      "inputs": [],
      "name": "totalCollaterals",
      "outputs": [
        {
          "internalType": "uint256",
          "name": "",
          "type": "uint256"
        }
      ],
      "stateMutability": "view",
      "type": "function"
    },
    {
      "inputs": [],
      "name": "totalDeposits",
      "outputs": [
        {
          "internalType": "uint256",
          "name": "",
          "type": "uint256"
        }
      ],
      "stateMutability": "view",
      "type": "function"
    },
    {
      "inputs": [],
      "name": "deposit",
      "outputs": [],
      "stateMutability": "payable",
      "type": "function"
    },
    {
      "inputs": [
        {
          "internalType": "uint256",
          "name": "amount",
          "type": "uint256"
        }
      ],
      "name": "borrow",
      "outputs": [],
      "stateMutability": "payable",
      "type": "function"
    },
    {
      "inputs": [
        {
          "internalType": "uint256",
          "name": "amount",
          "type": "uint256"
        }
      ],
      "name": "repay",
      "outputs": [],
      "stateMutability": "payable",
      "type": "function"
    },
    {
      "inputs": [
        {
          "internalType": "uint256",
          "name": "amount",
          "type": "uint256"
        }
      ],
      "name": "withdraw",
      "outputs": [],
      "stateMutability": "nonpayable",
      "type": "function"
    },
    {
      "inputs": [],
      "name": "updateInterest",
      "outputs": [],
      "stateMutability": "nonpayable",
      "type": "function"
    }
  ],
  "bytecode": "0x608060405234801561001057600080fd5b504260068190555061106f806100276000396000f3fe6080604052600436106100dd5760003560e01c806374b521421161007f578063d0e30db011610059578063d0e30db014610282578063d14827911461028c578063eeb97d3b146102a3578063fc7e286d146102e0576100dd565b806374b52142146102105780637d8820971461023b578063c5ebeaec14610266576100dd565b8063371fd8e6116100bb578063371fd8e61461016157806347bd37181461017d57806354a5706f146101a85780636e2f203b146101e5576100dd565b8063157bf470146100e25780632e1a7d4d1461010d57806330504b6f14610136575b600080fd5b3480156100ee57600080fd5b506100f761031d565b6040516101049190610d3d565b60405180910390f35b34801561011957600080fd5b50610134600480360381019061012f9190610bb6565b610322565b005b34801561014257600080fd5b5061014b61056a565b6040516101589190610d3d565b60405180910390f35b61017b60048036038101906101769190610bb6565b610570565b005b34801561018957600080fd5b506101926106ba565b60405161019f9190610d3d565b60405180910390f35b3480156101b457600080fd5b506101cf60048036038101906101ca9190610b8d565b6106c0565b6040516101dc9190610d3d565b60405180910390f35b3480156101f157600080fd5b506101fa6106d8565b6040516102079190610d3d565b60405180910390f35b34801561021c57600080fd5b506102256106dd565b6040516102329190610d3d565b60405180910390f35b34801561024757600080fd5b506102506106e3565b60405161025d9190610d3d565b60405180910390f35b610280600480360381019061027b9190610bb6565b6106e9565b005b61028a610908565b005b34801561029857600080fd5b506102a16109ce565b005b3480156102af57600080fd5b506102ca60048036038101906102c59190610b8d565b610b33565b6040516102d79190610d3d565b60405180910390f35b3480156102ec57600080fd5b5061030760048036038101906103029190610b8d565b610b4b565b6040516103149190610d3d565b60405180910390f35b600581565b61032a6109ce565b806000803373ffffffffffffffffffffffffffffffffffffffff1673ffffffffffffffffffffffffffffffffffffffff1681526020019081526020016000205410156103ab576040517f08c379a00000000000000000000000000000000000000000000000000000000081526004016103a290610cbd565b60405180910390fd5b806000803373ffffffffffffffffffffffffffffffffffffffff1673ffffffffffffffffffffffffffffffffffffffff16815260200190815260200160002060008282546103f99190610e4a565b9250508190555080600360008282546104129190610e4a565b925050819055506000600260003373ffffffffffffffffffffffffffffffffffffffff1673ffffffffffffffffffffffffffffffffffffffff1681526020019081526020016000205490506000600260003373ffffffffffffffffffffffffffffffffffffffff1673ffffffffffffffffffffffffffffffffffffffff1681526020019081526020016000208190555080600560008282546104b49190610e4a565b925050819055503373ffffffffffffffffffffffffffffffffffffffff166108fc82846104e19190610d69565b9081150290604051600060405180830381858888f1935050505015801561050c573d6000803e3d6000fd5b503373ffffffffffffffffffffffffffffffffffffffff167fb244b9a17ad633c6e83b7983ee04320484956a68ddbe96a0b70dfca1cf19d72382846105519190610d69565b60405161055e9190610d3d565b60405180910390a25050565b60055481565b6105786109ce565b80600160003373ffffffffffffffffffffffffffffffffffffffff1673ffffffffffffffffffffffffffffffffffffffff1681526020019081526020016000205410156105fa576040517f08c379a00000000000000000000000000000000000000000000000000000000081526004016105f190610cdd565b60405180910390fd5b80600160003373ffffffffffffffffffffffffffffffffffffffff1673ffffffffffffffffffffffffffffffffffffffff16815260200190815260200160002060008282546106499190610e4a565b9250508190555080600460008282546106629190610e4a565b925050819055503373ffffffffffffffffffffffffffffffffffffffff167f0516911bcc3a0a7412a44601057c0a0a1ec628bde049a84284bc428866534488826040516106af9190610d3d565b60405180910390a250565b60045481565b60016020528060005260406000206000915090505481565b600881565b60065481565b60035481565b6106f16109ce565b806004546003546107029190610e4a565b1015610743576040517f08c379a000000000000000000000000000000000000000000000000000000000815260040161073a90610d1d565b60405180910390fd5b6002816107509190610dbf565b341015610792576040517f08c379a000000000000000000000000000000000000000000000000000000000815260040161078990610cfd565b60405180910390fd5b34600260003373ffffffffffffffffffffffffffffffffffffffff1673ffffffffffffffffffffffffffffffffffffffff16815260200190815260200160002060008282546107e19190610d69565b9250508190555034600560008282546107fa9190610d69565b9250508190555080600160003373ffffffffffffffffffffffffffffffffffffffff1673ffffffffffffffffffffffffffffffffffffffff16815260200190815260200160002060008282546108509190610d69565b9250508190555080600460008282546108699190610d69565b925050819055503373ffffffffffffffffffffffffffffffffffffffff166108fc829081150290604051600060405180830381858888f193505050501580156108b6573d6000803e3d6000fd5b503373ffffffffffffffffffffffffffffffffffffffff167fac59582e5396aca512fa873a2047e7f4c80f8f55d4a06cb34a78a0187f62719f826040516108fd9190610d3d565b60405180910390a250565b6109106109ce565b346000803373ffffffffffffffffffffffffffffffffffffffff1673ffffffffffffffffffffffffffffffffffffffff168152602001908152602001600020600082825461095e9190610d69565b9250508190555034600360008282546109779190610d69565b925050819055503373ffffffffffffffffffffffffffffffffffffffff167f2da466a7b24304f47e87fa2e1e5a81b9831ce54fec19055ce277ca2f39ba42c4346040516109c49190610d3d565b60405180910390a2565b6000600654426109de9190610e4a565b90506000811115610b3057600063bbf81e00826008600454610a009190610df0565b610a0a9190610df0565b610a149190610dbf565b9050600063bbf81e00836005600354610a2d9190610df0565b610a379190610df0565b610a419190610dbf565b90506000600454118015610a5757506000600354115b15610ad65780821015610a9f576040517f08c379a0000000000000000000000000000000000000000000000000000000008152600401610a9690610c9d565b60405180910390fd5b8160046000828254610ab19190610d69565b925050819055508060036000828254610aca9190610d69565b92505081905550610b26565b60006003541115610aff578060036000828254610af39190610d69565b92505081905550610b25565b60006004541115610b24578160046000828254610b1c9190610d69565b925050819055505b5b5b4260068190555050505b50565b60026020528060005260406000206000915090505481565b60006020528060005260406000206000915090505481565b600081359050610b728161100b565b92915050565b600081359050610b8781611022565b92915050565b600060208284031215610b9f57600080fd5b6000610bad84828501610b63565b91505092915050565b600060208284031215610bc857600080fd5b6000610bd684828501610b78565b91505092915050565b6000610bec603683610d58565b9150610bf782610f18565b604082019050919050565b6000610c0f601483610d58565b9150610c1a82610f67565b602082019050919050565b6000610c32601783610d58565b9150610c3d82610f90565b602082019050919050565b6000610c55601783610d58565b9150610c6082610fb9565b602082019050919050565b6000610c78601483610d58565b9150610c8382610fe2565b602082019050919050565b610c9781610eb0565b82525050565b60006020820190508181036000830152610cb681610bdf565b9050919050565b60006020820190508181036000830152610cd681610c02565b9050919050565b60006020820190508181036000830152610cf681610c25565b9050919050565b60006020820190508181036000830152610d1681610c48565b9050919050565b60006020820190508181036000830152610d3681610c6b565b9050919050565b6000602082019050610d526000830184610c8e565b92915050565b600082825260208201905092915050565b6000610d7482610eb0565b9150610d7f83610eb0565b9250827fffffffffffffffffffffffffffffffffffffffffffffffffffffffffffffffff03821115610db457610db3610eba565b5b828201905092915050565b6000610dca82610eb0565b9150610dd583610eb0565b925082610de557610de4610ee9565b5b828204905092915050565b6000610dfb82610eb0565b9150610e0683610eb0565b9250817fffffffffffffffffffffffffffffffffffffffffffffffffffffffffffffffff0483118215151615610e3f57610e3e610eba565b5b828202905092915050565b6000610e5582610eb0565b9150610e6083610eb0565b925082821015610e7357610e72610eba565b5b828203905092915050565b6000610e8982610e90565b9050919050565b600073ffffffffffffffffffffffffffffffffffffffff82169050919050565b6000819050919050565b7f4e487b7100000000000000000000000000000000000000000000000000000000600052601160045260246000fd5b7f4e487b7100000000000000000000000000000000000000000000000000000000600052601260045260246000fd5b7f426f72726f77657220696e746572657374206d7573742062652067726561746560008201527f72207468616e206c656e64657220696e74657265737400000000000000000000602082015250565b7f496e73756666696369656e742062616c616e6365000000000000000000000000600082015250565b7f596f7520646f6e2774206f77652074686973206d756368000000000000000000600082015250565b7f496e73756666696369656e7420636f6c6c61746572616c000000000000000000600082015250565b7f4e6f7420656e6f756768206c6971756964697479000000000000000000000000600082015250565b61101481610e7e565b811461101f57600080fd5b50565b61102b81610eb0565b811461103657600080fd5b5056fea26469706673582212208006b183fda67b39703c8b69d7c9553cdbf13a2c28dc32696f67bb2817f0566164736f6c63430008010033",
  "immutableReferences": {},
  "source": "// SPDX-License-Identifier: MIT\r\npragma solidity ^0.8.1;\r\n\r\ncontract LendingPlatform {\r\n    mapping(address => uint256) public deposits; \r\n    mapping(address => uint256) public borrows;  \r\n    mapping(address => uint256) public collaterals; \r\n\r\n    uint256 public totalDeposits;\r\n    uint256 public totalBorrows;\r\n    uint256 public totalCollaterals;\r\n\r\n    uint256 public constant borrowerInterestRate = 8; // Annual, in percentage\r\n    uint256 public constant lenderInterestRate = 5; // Annual, in percentage\r\n    uint256 public lastInterestUpdate; // Timestamp\r\n\r\n    event Deposited(address indexed user, uint256 amount);\r\n    event Borrowed(address indexed user, uint256 amount);\r\n    event Repaid(address indexed user, uint256 amount);\r\n    event Withdrew(address indexed user, uint256 amount);\r\n\r\n    constructor() {\r\n        lastInterestUpdate = block.timestamp;\r\n    }\r\n\r\n    function deposit() external payable {\r\n        updateInterest();\r\n        deposits[msg.sender] += msg.value;\r\n        totalDeposits += msg.value;\r\n        emit Deposited(msg.sender, msg.value);\r\n    }\r\n\r\n    function borrow(uint256 amount) external payable {\r\n        updateInterest();\r\n        require(totalDeposits - totalBorrows >= amount, \"Not enough liquidity\");\r\n        require(msg.value >= amount / 2, \"Insufficient collateral\");\r\n\r\n        collaterals[msg.sender] += msg.value;\r\n        totalCollaterals += msg.value;\r\n\r\n        borrows[msg.sender] += amount;\r\n        totalBorrows += amount;\r\n\r\n        payable(msg.sender).transfer(amount);\r\n        \r\n        emit Borrowed(msg.sender, amount);\r\n    }\r\n\r\n    function repay(uint256 amount) external payable {\r\n        updateInterest();\r\n        require(borrows[msg.sender] >= amount, \"You don't owe this much\");\r\n\r\n        borrows[msg.sender] -= amount;\r\n        totalBorrows -= amount;\r\n        emit Repaid(msg.sender, amount);\r\n    }\r\n\r\n    function withdraw(uint256 amount) external {\r\n        updateInterest();\r\n        require(deposits[msg.sender] >= amount, \"Insufficient balance\");\r\n\r\n        deposits[msg.sender] -= amount;\r\n        totalDeposits -= amount;\r\n\r\n        uint256 collateralToReturn = collaterals[msg.sender];\r\n        collaterals[msg.sender] = 0;\r\n        totalCollaterals -= collateralToReturn;\r\n\r\n        payable(msg.sender).transfer(amount + collateralToReturn);\r\n        \r\n        emit Withdrew(msg.sender, amount + collateralToReturn);\r\n    }\r\n\r\n    function updateInterest() public {\r\n        uint256 timeSinceLastUpdate = block.timestamp - lastInterestUpdate;\r\n        if (timeSinceLastUpdate > 0) {\r\n            uint256 borrowerExtra = (totalBorrows * borrowerInterestRate * timeSinceLastUpdate) / (365 days * 100);\r\n            uint256 lenderExtra = (totalDeposits * lenderInterestRate * timeSinceLastUpdate) / (365 days * 100);\r\n\r\n            if (totalBorrows > 0 && totalDeposits > 0) {\r\n                require(borrowerExtra >= lenderExtra, \"Borrower interest must be greater than lender interest\");\r\n                totalBorrows += borrowerExtra;\r\n                totalDeposits += lenderExtra;\r\n            } else if (totalDeposits > 0) {\r\n                totalDeposits += lenderExtra;\r\n            } else if (totalBorrows > 0) {\r\n                totalBorrows += borrowerExtra;\r\n            }\r\n\r\n            lastInterestUpdate = block.timestamp;\r\n        }\r\n    }\r\n}\r\n",
  "sourcePath": "C:\\Users\\shrey\\Blend\\contracts\\LendingPlatform.sol",
  "compiler": {
    "name": "solc",
    "version": "0.8.1+commit.df193b15.Emscripten.clang"
  },
  "schemaVersion": "3.4.15",
  "updatedAt": "2023-09-02T09:17:02.722Z",
  "devdoc": {
    "kind": "dev",
    "methods": {},
    "version": 1
  },
  "userdoc": {
    "kind": "user",
    "methods": {},
    "version": 1
  }
}